:020000020000FC
:020000001FC01F
:040008000C944C0008
:040010000C945300F9
:1000400000E10EBF0FEF0DBF41E000E80ABBDF9AF1
:1000500000E007B301B30FEF04BB08BB02BB00E035
:1000600005BB0CEC00936A000AE009BF7894DF98A6
:1000700010E1141B012F8FEF9FEF0197F1F70A9505
:10008000D1F7DF9A10E1141B012F8FEF9FEF01973B
:10009000F1F70A95D1F7EBCF41301CF0415045BB49
:1000A000189541E018954F3020F461E0460F45BBAC
:0600B00018954FE01895C1
:00000001FF
