:020000020000FC
:0200000008C036
:020008003AC0FC
:100010002CC000E10EBF0FEF0DBF00E80ABB0FE0E0
:1000200004BBDF9A0FE005BB00E007BB0AE008BB9A
:1000300000E001BB41E008E800936A000AE009BF64
:100040007894DF9800E1041B10E08FEF9FEF019799
:10005000F1F70A95D1F7DF9A00E1041B8FEF9FEFCC
:100060000197F1F70A95D1F7ECCF099A199A4F3019
:1000700004F04395142F2FE0122715BB1895099A09
:10008000199A4F3000F44A95142F2FE0122715BB10
:020090001895C1
:00000001FF
